{
  "_format": "hh-sol-artifact-1",
  "contractName": "NFTMarketplace",
  "sourceName": "contracts/NFTMarketplace.sol",
  "abi": [
    {
      "inputs": [],
      "stateMutability": "nonpayable",
      "type": "constructor"
    },
    {
      "anonymous": false,
      "inputs": [
        {
          "indexed": true,
          "internalType": "address",
          "name": "owner",
          "type": "address"
        },
        {
          "indexed": true,
          "internalType": "address",
          "name": "approved",
          "type": "address"
        },
        {
          "indexed": true,
          "internalType": "uint256",
          "name": "tokenId",
          "type": "uint256"
        }
      ],
      "name": "Approval",
      "type": "event"
    },
    {
      "anonymous": false,
      "inputs": [
        {
          "indexed": true,
          "internalType": "address",
          "name": "owner",
          "type": "address"
        },
        {
          "indexed": true,
          "internalType": "address",
          "name": "operator",
          "type": "address"
        },
        {
          "indexed": false,
          "internalType": "bool",
          "name": "approved",
          "type": "bool"
        }
      ],
      "name": "ApprovalForAll",
      "type": "event"
    },
    {
      "anonymous": false,
      "inputs": [
        {
          "indexed": false,
          "internalType": "uint256",
          "name": "_fromTokenId",
          "type": "uint256"
        },
        {
          "indexed": false,
          "internalType": "uint256",
          "name": "_toTokenId",
          "type": "uint256"
        }
      ],
      "name": "BatchMetadataUpdate",
      "type": "event"
    },
    {
      "anonymous": false,
      "inputs": [
        {
          "indexed": false,
          "internalType": "uint256",
          "name": "_tokenId",
          "type": "uint256"
        }
      ],
      "name": "MetadataUpdate",
      "type": "event"
    },
    {
      "anonymous": false,
      "inputs": [
        {
          "indexed": true,
          "internalType": "address",
          "name": "from",
          "type": "address"
        },
        {
          "indexed": true,
          "internalType": "address",
          "name": "to",
          "type": "address"
        },
        {
          "indexed": true,
          "internalType": "uint256",
          "name": "tokenId",
          "type": "uint256"
        }
      ],
      "name": "Transfer",
      "type": "event"
    },
    {
      "anonymous": false,
      "inputs": [
        {
          "indexed": true,
          "internalType": "uint256",
          "name": "tokenId",
          "type": "uint256"
        },
        {
          "indexed": false,
          "internalType": "address",
          "name": "seller",
          "type": "address"
        },
        {
          "indexed": false,
          "internalType": "address",
          "name": "owner",
          "type": "address"
        },
        {
          "indexed": false,
          "internalType": "uint256",
          "name": "price",
          "type": "uint256"
        },
        {
          "indexed": false,
          "internalType": "bool",
          "name": "sold",
          "type": "bool"
        }
      ],
      "name": "idMarketItemCreated",
      "type": "event"
    },
    {
      "inputs": [
        {
          "internalType": "address",
          "name": "to",
          "type": "address"
        },
        {
          "internalType": "uint256",
          "name": "tokenId",
          "type": "uint256"
        }
      ],
      "name": "approve",
      "outputs": [],
      "stateMutability": "nonpayable",
      "type": "function"
    },
    {
      "inputs": [
        {
          "internalType": "address",
          "name": "owner",
          "type": "address"
        }
      ],
      "name": "balanceOf",
      "outputs": [
        {
          "internalType": "uint256",
          "name": "",
          "type": "uint256"
        }
      ],
      "stateMutability": "view",
      "type": "function"
    },
    {
      "inputs": [
        {
          "internalType": "uint256",
          "name": "tokenId",
          "type": "uint256"
        }
      ],
      "name": "createMarketSale",
      "outputs": [],
      "stateMutability": "payable",
      "type": "function"
    },
    {
      "inputs": [
        {
          "internalType": "string",
          "name": "tokenURI",
          "type": "string"
        },
        {
          "internalType": "uint256",
          "name": "price",
          "type": "uint256"
        }
      ],
      "name": "createToken",
      "outputs": [
        {
          "internalType": "uint256",
          "name": "",
          "type": "uint256"
        }
      ],
      "stateMutability": "payable",
      "type": "function"
    },
    {
      "inputs": [],
      "name": "fetchItemsListed",
      "outputs": [
        {
          "components": [
            {
              "internalType": "uint256",
              "name": "tokenId",
              "type": "uint256"
            },
            {
              "internalType": "address payable",
              "name": "seller",
              "type": "address"
            },
            {
              "internalType": "address payable",
              "name": "owner",
              "type": "address"
            },
            {
              "internalType": "uint256",
              "name": "price",
              "type": "uint256"
            },
            {
              "internalType": "bool",
              "name": "sold",
              "type": "bool"
            }
          ],
          "internalType": "struct NFTMarketplace.MarketItem[]",
          "name": "",
          "type": "tuple[]"
        }
      ],
      "stateMutability": "view",
      "type": "function"
    },
    {
      "inputs": [],
      "name": "fetchMarketIten",
      "outputs": [
        {
          "components": [
            {
              "internalType": "uint256",
              "name": "tokenId",
              "type": "uint256"
            },
            {
              "internalType": "address payable",
              "name": "seller",
              "type": "address"
            },
            {
              "internalType": "address payable",
              "name": "owner",
              "type": "address"
            },
            {
              "internalType": "uint256",
              "name": "price",
              "type": "uint256"
            },
            {
              "internalType": "bool",
              "name": "sold",
              "type": "bool"
            }
          ],
          "internalType": "struct NFTMarketplace.MarketItem[]",
          "name": "",
          "type": "tuple[]"
        }
      ],
      "stateMutability": "view",
      "type": "function"
    },
    {
      "inputs": [],
      "name": "fetchMyNFT",
      "outputs": [
        {
          "components": [
            {
              "internalType": "uint256",
              "name": "tokenId",
              "type": "uint256"
            },
            {
              "internalType": "address payable",
              "name": "seller",
              "type": "address"
            },
            {
              "internalType": "address payable",
              "name": "owner",
              "type": "address"
            },
            {
              "internalType": "uint256",
              "name": "price",
              "type": "uint256"
            },
            {
              "internalType": "bool",
              "name": "sold",
              "type": "bool"
            }
          ],
          "internalType": "struct NFTMarketplace.MarketItem[]",
          "name": "",
          "type": "tuple[]"
        }
      ],
      "stateMutability": "view",
      "type": "function"
    },
    {
      "inputs": [
        {
          "internalType": "uint256",
          "name": "tokenId",
          "type": "uint256"
        }
      ],
      "name": "getApproved",
      "outputs": [
        {
          "internalType": "address",
          "name": "",
          "type": "address"
        }
      ],
      "stateMutability": "view",
      "type": "function"
    },
    {
      "inputs": [],
      "name": "getListingPrice",
      "outputs": [
        {
          "internalType": "uint256",
          "name": "",
          "type": "uint256"
        }
      ],
      "stateMutability": "view",
      "type": "function"
    },
    {
      "inputs": [
        {
          "internalType": "address",
          "name": "owner",
          "type": "address"
        },
        {
          "internalType": "address",
          "name": "operator",
          "type": "address"
        }
      ],
      "name": "isApprovedForAll",
      "outputs": [
        {
          "internalType": "bool",
          "name": "",
          "type": "bool"
        }
      ],
      "stateMutability": "view",
      "type": "function"
    },
    {
      "inputs": [],
      "name": "name",
      "outputs": [
        {
          "internalType": "string",
          "name": "",
          "type": "string"
        }
      ],
      "stateMutability": "view",
      "type": "function"
    },
    {
      "inputs": [
        {
          "internalType": "uint256",
          "name": "tokenId",
          "type": "uint256"
        }
      ],
      "name": "ownerOf",
      "outputs": [
        {
          "internalType": "address",
          "name": "",
          "type": "address"
        }
      ],
      "stateMutability": "view",
      "type": "function"
    },
    {
      "inputs": [
        {
          "internalType": "uint256",
          "name": "tokenId",
          "type": "uint256"
        },
        {
          "internalType": "uint256",
          "name": "price",
          "type": "uint256"
        }
      ],
      "name": "reSellToken",
      "outputs": [],
      "stateMutability": "payable",
      "type": "function"
    },
    {
      "inputs": [
        {
          "internalType": "address",
          "name": "from",
          "type": "address"
        },
        {
          "internalType": "address",
          "name": "to",
          "type": "address"
        },
        {
          "internalType": "uint256",
          "name": "tokenId",
          "type": "uint256"
        }
      ],
      "name": "safeTransferFrom",
      "outputs": [],
      "stateMutability": "nonpayable",
      "type": "function"
    },
    {
      "inputs": [
        {
          "internalType": "address",
          "name": "from",
          "type": "address"
        },
        {
          "internalType": "address",
          "name": "to",
          "type": "address"
        },
        {
          "internalType": "uint256",
          "name": "tokenId",
          "type": "uint256"
        },
        {
          "internalType": "bytes",
          "name": "data",
          "type": "bytes"
        }
      ],
      "name": "safeTransferFrom",
      "outputs": [],
      "stateMutability": "nonpayable",
      "type": "function"
    },
    {
      "inputs": [
        {
          "internalType": "address",
          "name": "operator",
          "type": "address"
        },
        {
          "internalType": "bool",
          "name": "approved",
          "type": "bool"
        }
      ],
      "name": "setApprovalForAll",
      "outputs": [],
      "stateMutability": "nonpayable",
      "type": "function"
    },
    {
      "inputs": [
        {
          "internalType": "bytes4",
          "name": "interfaceId",
          "type": "bytes4"
        }
      ],
      "name": "supportsInterface",
      "outputs": [
        {
          "internalType": "bool",
          "name": "",
          "type": "bool"
        }
      ],
      "stateMutability": "view",
      "type": "function"
    },
    {
      "inputs": [],
      "name": "symbol",
      "outputs": [
        {
          "internalType": "string",
          "name": "",
          "type": "string"
        }
      ],
      "stateMutability": "view",
      "type": "function"
    },
    {
      "inputs": [
        {
          "internalType": "uint256",
          "name": "tokenId",
          "type": "uint256"
        }
      ],
      "name": "tokenURI",
      "outputs": [
        {
          "internalType": "string",
          "name": "",
          "type": "string"
        }
      ],
      "stateMutability": "view",
      "type": "function"
    },
    {
      "inputs": [
        {
          "internalType": "address",
          "name": "from",
          "type": "address"
        },
        {
          "internalType": "address",
          "name": "to",
          "type": "address"
        },
        {
          "internalType": "uint256",
          "name": "tokenId",
          "type": "uint256"
        }
      ],
      "name": "transferFrom",
      "outputs": [],
      "stateMutability": "nonpayable",
      "type": "function"
    },
    {
      "inputs": [
        {
          "internalType": "uint256",
          "name": "_listingPrice",
          "type": "uint256"
        }
      ],
      "name": "updateListingPrice",
      "outputs": [],
      "stateMutability": "payable",
      "type": "function"
    }
  ],
  "bytecode": "0x60806040526605543df729c0006009553480156200001c57600080fd5b506040518060400160405280601381526020017f4e4654204d657461766572736520546f6b656e000000000000000000000000008152506040518060400160405280600581526020017f4d594e465400000000000000000000000000000000000000000000000000000081525081600090816200009a919062000355565b508060019081620000ac919062000355565b5050503373ffffffffffffffffffffffffffffffffffffffff16600a60009054906101000a905050506200043c565b600081519050919050565b7f4e487b7100000000000000000000000000000000000000000000000000000000600052604160045260246000fd5b7f4e487b7100000000000000000000000000000000000000000000000000000000600052602260045260246000fd5b600060028204905060018216806200015d57607f821691505b60208210810362000173576200017262000115565b5b50919050565b60008190508160005260206000209050919050565b60006020601f8301049050919050565b600082821b905092915050565b600060088302620001dd7fffffffffffffffffffffffffffffffffffffffffffffffffffffffffffffffff826200019e565b620001e986836200019e565b95508019841693508086168417925050509392505050565b6000819050919050565b6000819050919050565b600062000236620002306200022a8462000201565b6200020b565b62000201565b9050919050565b6000819050919050565b620002528362000215565b6200026a62000261826200023d565b848454620001ab565b825550505050565b600090565b6200028162000272565b6200028e81848462000247565b505050565b5b81811015620002b657620002aa60008262000277565b60018101905062000294565b5050565b601f8211156200030557620002cf8162000179565b620002da846200018e565b81016020851015620002ea578190505b62000302620002f9856200018e565b83018262000293565b50505b505050565b600082821c905092915050565b60006200032a600019846008026200030a565b1980831691505092915050565b600062000345838362000317565b9150826002028217905092915050565b6200036082620000db565b67ffffffffffffffff8111156200037c576200037b620000e6565b5b62000388825462000144565b62000395828285620002ba565b600060209050601f831160018114620003cd5760008415620003b8578287015190505b620003c4858262000337565b86555062000434565b601f198416620003dd8662000179565b60005b828110156200040757848901518255600182019150602085019450602081019050620003e0565b8683101562000427578489015162000423601f89168262000317565b8355505b6001600288020188555050505b505050505050565b6142bf806200044c6000396000f3fe60806040526004361061012a5760003560e01c806372b3b620116100ab578063b88d4fde1161006f578063b88d4fde146103db578063be9af53614610404578063c18763f714610420578063c87b56dd1461044b578063e985e9c514610488578063ed56e783146104c55761012a565b806372b3b6201461031f57806385535b251461034f57806395d89b411461036b578063a22cb46514610396578063ae677aa3146103bf5761012a565b806323b872dd116100f257806323b872dd1461022857806342842e0e1461025157806345f8fa801461027a5780636352211e146102a557806370a08231146102e25761012a565b806301ffc9a71461012f57806306fdde031461016c578063081812fc14610197578063095ea7b3146101d457806312e85585146101fd575b600080fd5b34801561013b57600080fd5b5061015660048036038101906101519190612b83565b6104f0565b6040516101639190612bcb565b60405180910390f35b34801561017857600080fd5b50610181610551565b60405161018e9190612c76565b60405180910390f35b3480156101a357600080fd5b506101be60048036038101906101b99190612cce565b6105e3565b6040516101cb9190612d3c565b60405180910390f35b3480156101e057600080fd5b506101fb60048036038101906101f69190612d83565b610629565b005b34801561020957600080fd5b50610212610740565b60405161021f9190612dd2565b60405180910390f35b34801561023457600080fd5b5061024f600480360381019061024a9190612ded565b61074a565b005b34801561025d57600080fd5b5061027860048036038101906102739190612ded565b6107aa565b005b34801561028657600080fd5b5061028f6107ca565b60405161029c9190612f96565b60405180910390f35b3480156102b157600080fd5b506102cc60048036038101906102c79190612cce565b610ab4565b6040516102d99190612d3c565b60405180910390f35b3480156102ee57600080fd5b5061030960048036038101906103049190612fb8565b610b3a565b6040516103169190612dd2565b60405180910390f35b6103396004803603810190610334919061311a565b610bf1565b6040516103469190612dd2565b60405180910390f35b61036960048036038101906103649190613176565b610c33565b005b34801561037757600080fd5b50610380610e28565b60405161038d9190612c76565b60405180910390f35b3480156103a257600080fd5b506103bd60048036038101906103b891906131e2565b610eba565b005b6103d960048036038101906103d49190612cce565b610ed0565b005b3480156103e757600080fd5b5061040260048036038101906103fd91906132c3565b610f63565b005b61041e60048036038101906104199190612cce565b610fc5565b005b34801561042c57600080fd5b506104356111fd565b6040516104429190612f96565b60405180910390f35b34801561045757600080fd5b50610472600480360381019061046d9190612cce565b6114e7565b60405161047f9190612c76565b60405180910390f35b34801561049457600080fd5b506104af60048036038101906104aa9190613346565b6115f9565b6040516104bc9190612bcb565b60405180910390f35b3480156104d157600080fd5b506104da61168d565b6040516104e79190612f96565b60405180910390f35b6000634906490660e01b7bffffffffffffffffffffffffffffffffffffffffffffffffffffffff1916827bffffffffffffffffffffffffffffffffffffffffffffffffffffffff1916148061054a5750610549826118f4565b5b9050919050565b606060008054610560906133b5565b80601f016020809104026020016040519081016040528092919081815260200182805461058c906133b5565b80156105d95780601f106105ae576101008083540402835291602001916105d9565b820191906000526020600020905b8154815290600101906020018083116105bc57829003601f168201915b5050505050905090565b60006105ee826119d6565b6004600083815260200190815260200160002060009054906101000a900473ffffffffffffffffffffffffffffffffffffffff169050919050565b600061063482610ab4565b90508073ffffffffffffffffffffffffffffffffffffffff168373ffffffffffffffffffffffffffffffffffffffff16036106a4576040517f08c379a000000000000000000000000000000000000000000000000000000000815260040161069b90613458565b60405180910390fd5b8073ffffffffffffffffffffffffffffffffffffffff166106c3611a21565b73ffffffffffffffffffffffffffffffffffffffff1614806106f257506106f1816106ec611a21565b6115f9565b5b610731576040517f08c379a0000000000000000000000000000000000000000000000000000000008152600401610728906134ea565b60405180910390fd5b61073b8383611a29565b505050565b6000600954905090565b61075b610755611a21565b82611ae2565b61079a576040517f08c379a00000000000000000000000000000000000000000000000000000000081526004016107919061357c565b60405180910390fd5b6107a5838383611b77565b505050565b6107c583838360405180602001604052806000815250610f63565b505050565b606060006107d86007611e70565b905060008060005b8381101561087f573373ffffffffffffffffffffffffffffffffffffffff16600b600060018461081091906135cb565b815260200190815260200160002060020160009054906101000a900473ffffffffffffffffffffffffffffffffffffffff1673ffffffffffffffffffffffffffffffffffffffff160361086c578280610868906135ff565b9350505b8080610877906135ff565b9150506107e0565b5060008267ffffffffffffffff81111561089c5761089b612fef565b5b6040519080825280602002602001820160405280156108d557816020015b6108c2612aba565b8152602001906001900390816108ba5790505b50905060005b83811015610aa9573373ffffffffffffffffffffffffffffffffffffffff16600b600060018461090b91906135cb565b815260200190815260200160002060010160009054906101000a900473ffffffffffffffffffffffffffffffffffffffff1673ffffffffffffffffffffffffffffffffffffffff1603610a9657600060018261096791906135cb565b90506000600b60008381526020019081526020016000209050806040518060a0016040529081600082015481526020016001820160009054906101000a900473ffffffffffffffffffffffffffffffffffffffff1673ffffffffffffffffffffffffffffffffffffffff1673ffffffffffffffffffffffffffffffffffffffff1681526020016002820160009054906101000a900473ffffffffffffffffffffffffffffffffffffffff1673ffffffffffffffffffffffffffffffffffffffff1673ffffffffffffffffffffffffffffffffffffffff168152602001600382015481526020016004820160009054906101000a900460ff161515151581525050848681518110610a7a57610a79613647565b5b60200260200101819052508480610a90906135ff565b95505050505b8080610aa1906135ff565b9150506108db565b508094505050505090565b600080610ac083611e7e565b9050600073ffffffffffffffffffffffffffffffffffffffff168173ffffffffffffffffffffffffffffffffffffffff1603610b31576040517f08c379a0000000000000000000000000000000000000000000000000000000008152600401610b28906136c2565b60405180910390fd5b80915050919050565b60008073ffffffffffffffffffffffffffffffffffffffff168273ffffffffffffffffffffffffffffffffffffffff1603610baa576040517f08c379a0000000000000000000000000000000000000000000000000000000008152600401610ba190613754565b60405180910390fd5b600360008373ffffffffffffffffffffffffffffffffffffffff1673ffffffffffffffffffffffffffffffffffffffff168152602001908152602001600020549050919050565b6000610bfd6007611ebb565b6000610c096007611e70565b9050610c153382611ed1565b610c1f81856120ee565b610c298184612192565b8091505092915050565b3373ffffffffffffffffffffffffffffffffffffffff16600b600084815260200190815260200160002060020160009054906101000a900473ffffffffffffffffffffffffffffffffffffffff1673ffffffffffffffffffffffffffffffffffffffff1614610cd7576040517f08c379a0000000000000000000000000000000000000000000000000000000008152600401610cce906137e6565b60405180910390fd5b6009543414610d1b576040517f08c379a0000000000000000000000000000000000000000000000000000000008152600401610d1290613878565b60405180910390fd5b6000600b600084815260200190815260200160002060040160006101000a81548160ff02191690831515021790555080600b60008481526020019081526020016000206003018190555033600b600084815260200190815260200160002060010160006101000a81548173ffffffffffffffffffffffffffffffffffffffff021916908373ffffffffffffffffffffffffffffffffffffffff16021790555030600b600084815260200190815260200160002060020160006101000a81548173ffffffffffffffffffffffffffffffffffffffff021916908373ffffffffffffffffffffffffffffffffffffffff160217905550610e196008612395565b610e24333084611b77565b5050565b606060018054610e37906133b5565b80601f0160208091040260200160405190810160405280929190818152602001828054610e63906133b5565b8015610eb05780601f10610e8557610100808354040283529160200191610eb0565b820191906000526020600020905b815481529060010190602001808311610e9357829003601f168201915b5050505050905090565b610ecc610ec5611a21565b83836123f1565b5050565b600a60009054906101000a900473ffffffffffffffffffffffffffffffffffffffff1673ffffffffffffffffffffffffffffffffffffffff163373ffffffffffffffffffffffffffffffffffffffff1614610f60576040517f08c379a0000000000000000000000000000000000000000000000000000000008152600401610f579061390a565b60405180910390fd5b50565b610f74610f6e611a21565b83611ae2565b610fb3576040517f08c379a0000000000000000000000000000000000000000000000000000000008152600401610faa9061357c565b60405180910390fd5b610fbf8484848461255d565b50505050565b6000600b6000838152602001908152602001600020600301549050803414611022576040517f08c379a00000000000000000000000000000000000000000000000000000000081526004016110199061399c565b60405180910390fd5b33600b600084815260200190815260200160002060020160006101000a81548173ffffffffffffffffffffffffffffffffffffffff021916908373ffffffffffffffffffffffffffffffffffffffff1602179055506001600b600084815260200190815260200160002060040160006101000a81548160ff0219169083151502179055506000600b600084815260200190815260200160002060020160006101000a81548173ffffffffffffffffffffffffffffffffffffffff021916908373ffffffffffffffffffffffffffffffffffffffff1602179055506111066008611ebb565b611111303384611b77565b600a60009054906101000a900473ffffffffffffffffffffffffffffffffffffffff1673ffffffffffffffffffffffffffffffffffffffff166108fc6009549081150290604051600060405180830381858888f1935050505015801561117b573d6000803e3d6000fd5b50600b600083815260200190815260200160002060010160009054906101000a900473ffffffffffffffffffffffffffffffffffffffff1673ffffffffffffffffffffffffffffffffffffffff166108fc349081150290604051600060405180830381858888f193505050501580156111f8573d6000803e3d6000fd5b505050565b6060600061120b6007611e70565b905060008060005b838110156112b2573373ffffffffffffffffffffffffffffffffffffffff16600b600060018461124391906135cb565b815260200190815260200160002060020160009054906101000a900473ffffffffffffffffffffffffffffffffffffffff1673ffffffffffffffffffffffffffffffffffffffff160361129f57828061129b906135ff565b9350505b80806112aa906135ff565b915050611213565b5060008267ffffffffffffffff8111156112cf576112ce612fef565b5b60405190808252806020026020018201604052801561130857816020015b6112f5612aba565b8152602001906001900390816112ed5790505b50905060005b838110156114dc573373ffffffffffffffffffffffffffffffffffffffff16600b600060018461133e91906135cb565b815260200190815260200160002060020160009054906101000a900473ffffffffffffffffffffffffffffffffffffffff1673ffffffffffffffffffffffffffffffffffffffff16036114c957600060018261139a91906135cb565b90506000600b60008381526020019081526020016000209050806040518060a0016040529081600082015481526020016001820160009054906101000a900473ffffffffffffffffffffffffffffffffffffffff1673ffffffffffffffffffffffffffffffffffffffff1673ffffffffffffffffffffffffffffffffffffffff1681526020016002820160009054906101000a900473ffffffffffffffffffffffffffffffffffffffff1673ffffffffffffffffffffffffffffffffffffffff1673ffffffffffffffffffffffffffffffffffffffff168152602001600382015481526020016004820160009054906101000a900460ff1615151515815250508486815181106114ad576114ac613647565b5b602002602001018190525084806114c3906135ff565b95505050505b80806114d4906135ff565b91505061130e565b508094505050505090565b60606114f2826119d6565b6000600660008481526020019081526020016000208054611512906133b5565b80601f016020809104026020016040519081016040528092919081815260200182805461153e906133b5565b801561158b5780601f106115605761010080835404028352916020019161158b565b820191906000526020600020905b81548152906001019060200180831161156e57829003601f168201915b50505050509050600061159c6125b9565b905060008151036115b15781925050506115f4565b6000825111156115e65780826040516020016115ce9291906139f8565b604051602081830303815290604052925050506115f4565b6115ef846125d0565b925050505b919050565b6000600560008473ffffffffffffffffffffffffffffffffffffffff1673ffffffffffffffffffffffffffffffffffffffff16815260200190815260200160002060008373ffffffffffffffffffffffffffffffffffffffff1673ffffffffffffffffffffffffffffffffffffffff16815260200190815260200160002060009054906101000a900460ff16905092915050565b6060600061169b6007611e70565b905060006116a96008611e70565b6116b36007611e70565b6116bd9190613a1c565b90506000808267ffffffffffffffff8111156116dc576116db612fef565b5b60405190808252806020026020018201604052801561171557816020015b611702612aba565b8152602001906001900390816116fa5790505b50905060005b848110156118e9573073ffffffffffffffffffffffffffffffffffffffff16600b600060018461174b91906135cb565b815260200190815260200160002060020160009054906101000a900473ffffffffffffffffffffffffffffffffffffffff1673ffffffffffffffffffffffffffffffffffffffff16036118d65760006001826117a791906135cb565b90506000600b60008381526020019081526020016000209050806040518060a0016040529081600082015481526020016001820160009054906101000a900473ffffffffffffffffffffffffffffffffffffffff1673ffffffffffffffffffffffffffffffffffffffff1673ffffffffffffffffffffffffffffffffffffffff1681526020016002820160009054906101000a900473ffffffffffffffffffffffffffffffffffffffff1673ffffffffffffffffffffffffffffffffffffffff1673ffffffffffffffffffffffffffffffffffffffff168152602001600382015481526020016004820160009054906101000a900460ff1615151515815250508486815181106118ba576118b9613647565b5b602002602001018190525084806118d0906135ff565b95505050505b80806118e1906135ff565b91505061171b565b508094505050505090565b60007f80ac58cd000000000000000000000000000000000000000000000000000000007bffffffffffffffffffffffffffffffffffffffffffffffffffffffff1916827bffffffffffffffffffffffffffffffffffffffffffffffffffffffff191614806119bf57507f5b5e139f000000000000000000000000000000000000000000000000000000007bffffffffffffffffffffffffffffffffffffffffffffffffffffffff1916827bffffffffffffffffffffffffffffffffffffffffffffffffffffffff1916145b806119cf57506119ce82612638565b5b9050919050565b6119df816126a2565b611a1e576040517f08c379a0000000000000000000000000000000000000000000000000000000008152600401611a15906136c2565b60405180910390fd5b50565b600033905090565b816004600083815260200190815260200160002060006101000a81548173ffffffffffffffffffffffffffffffffffffffff021916908373ffffffffffffffffffffffffffffffffffffffff160217905550808273ffffffffffffffffffffffffffffffffffffffff16611a9c83610ab4565b73ffffffffffffffffffffffffffffffffffffffff167f8c5be1e5ebec7d5bd14f71427d1e84f3dd0314c0f7b2291e5b200ac8c7c3b92560405160405180910390a45050565b600080611aee83610ab4565b90508073ffffffffffffffffffffffffffffffffffffffff168473ffffffffffffffffffffffffffffffffffffffff161480611b305750611b2f81856115f9565b5b80611b6e57508373ffffffffffffffffffffffffffffffffffffffff16611b56846105e3565b73ffffffffffffffffffffffffffffffffffffffff16145b91505092915050565b8273ffffffffffffffffffffffffffffffffffffffff16611b9782610ab4565b73ffffffffffffffffffffffffffffffffffffffff1614611bed576040517f08c379a0000000000000000000000000000000000000000000000000000000008152600401611be490613ac2565b60405180910390fd5b600073ffffffffffffffffffffffffffffffffffffffff168273ffffffffffffffffffffffffffffffffffffffff1603611c5c576040517f08c379a0000000000000000000000000000000000000000000000000000000008152600401611c5390613b54565b60405180910390fd5b611c6983838360016126e3565b8273ffffffffffffffffffffffffffffffffffffffff16611c8982610ab4565b73ffffffffffffffffffffffffffffffffffffffff1614611cdf576040517f08c379a0000000000000000000000000000000000000000000000000000000008152600401611cd690613ac2565b60405180910390fd5b6004600082815260200190815260200160002060006101000a81549073ffffffffffffffffffffffffffffffffffffffff02191690556001600360008573ffffffffffffffffffffffffffffffffffffffff1673ffffffffffffffffffffffffffffffffffffffff168152602001908152602001600020600082825403925050819055506001600360008473ffffffffffffffffffffffffffffffffffffffff1673ffffffffffffffffffffffffffffffffffffffff16815260200190815260200160002060008282540192505081905550816002600083815260200190815260200160002060006101000a81548173ffffffffffffffffffffffffffffffffffffffff021916908373ffffffffffffffffffffffffffffffffffffffff160217905550808273ffffffffffffffffffffffffffffffffffffffff168473ffffffffffffffffffffffffffffffffffffffff167fddf252ad1be2c89b69c2b068fc378daa952ba7f163c4a11628f55a4df523b3ef60405160405180910390a4611e6b83838360016126e9565b505050565b600081600001549050919050565b60006002600083815260200190815260200160002060009054906101000a900473ffffffffffffffffffffffffffffffffffffffff169050919050565b6001816000016000828254019250508190555050565b600073ffffffffffffffffffffffffffffffffffffffff168273ffffffffffffffffffffffffffffffffffffffff1603611f40576040517f08c379a0000000000000000000000000000000000000000000000000000000008152600401611f3790613bc0565b60405180910390fd5b611f49816126a2565b15611f89576040517f08c379a0000000000000000000000000000000000000000000000000000000008152600401611f8090613c2c565b60405180910390fd5b611f976000838360016126e3565b611fa0816126a2565b15611fe0576040517f08c379a0000000000000000000000000000000000000000000000000000000008152600401611fd790613c2c565b60405180910390fd5b6001600360008473ffffffffffffffffffffffffffffffffffffffff1673ffffffffffffffffffffffffffffffffffffffff16815260200190815260200160002060008282540192505081905550816002600083815260200190815260200160002060006101000a81548173ffffffffffffffffffffffffffffffffffffffff021916908373ffffffffffffffffffffffffffffffffffffffff160217905550808273ffffffffffffffffffffffffffffffffffffffff16600073ffffffffffffffffffffffffffffffffffffffff167fddf252ad1be2c89b69c2b068fc378daa952ba7f163c4a11628f55a4df523b3ef60405160405180910390a46120ea6000838360016126e9565b5050565b6120f7826126a2565b612136576040517f08c379a000000000000000000000000000000000000000000000000000000000815260040161212d90613cbe565b60405180910390fd5b806006600084815260200190815260200160002090816121569190613e8a565b507ff8e1a15aba9398e019f0b49df1a4fde98ee17ae345cb5f6b5e2c27f5033e8ce7826040516121869190612dd2565b60405180910390a15050565b600081116121d5576040517f08c379a00000000000000000000000000000000000000000000000000000000081526004016121cc90613fa8565b60405180910390fd5b6009543414612219576040517f08c379a000000000000000000000000000000000000000000000000000000000815260040161221090613878565b60405180910390fd5b6040518060a001604052808381526020013373ffffffffffffffffffffffffffffffffffffffff1681526020013073ffffffffffffffffffffffffffffffffffffffff16815260200182815260200160001515815250600b60008481526020019081526020016000206000820151816000015560208201518160010160006101000a81548173ffffffffffffffffffffffffffffffffffffffff021916908373ffffffffffffffffffffffffffffffffffffffff16021790555060408201518160020160006101000a81548173ffffffffffffffffffffffffffffffffffffffff021916908373ffffffffffffffffffffffffffffffffffffffff1602179055506060820151816003015560808201518160040160006101000a81548160ff021916908315150217905550905050612352333084611b77565b817fdebdb32cb5230ab727c9c361b16fdb2015df225c10e6a3e7f60ecd5dc5be451633308460006040516123899493929190613fc8565b60405180910390a25050565b600081600001549050600081116123e1576040517f08c379a00000000000000000000000000000000000000000000000000000000081526004016123d890614059565b60405180910390fd5b6001810382600001819055505050565b8173ffffffffffffffffffffffffffffffffffffffff168373ffffffffffffffffffffffffffffffffffffffff160361245f576040517f08c379a0000000000000000000000000000000000000000000000000000000008152600401612456906140c5565b60405180910390fd5b80600560008573ffffffffffffffffffffffffffffffffffffffff1673ffffffffffffffffffffffffffffffffffffffff16815260200190815260200160002060008473ffffffffffffffffffffffffffffffffffffffff1673ffffffffffffffffffffffffffffffffffffffff16815260200190815260200160002060006101000a81548160ff0219169083151502179055508173ffffffffffffffffffffffffffffffffffffffff168373ffffffffffffffffffffffffffffffffffffffff167f17307eab39ab6107e8899845ad3d59bd9653f200f220920489ca2b5937696c31836040516125509190612bcb565b60405180910390a3505050565b612568848484611b77565b612574848484846126ef565b6125b3576040517f08c379a00000000000000000000000000000000000000000000000000000000081526004016125aa90614157565b60405180910390fd5b50505050565b606060405180602001604052806000815250905090565b60606125db826119d6565b60006125e56125b9565b905060008151116126055760405180602001604052806000815250612630565b8061260f84612876565b6040516020016126209291906139f8565b6040516020818303038152906040525b915050919050565b60007f01ffc9a7000000000000000000000000000000000000000000000000000000007bffffffffffffffffffffffffffffffffffffffffffffffffffffffff1916827bffffffffffffffffffffffffffffffffffffffffffffffffffffffff1916149050919050565b60008073ffffffffffffffffffffffffffffffffffffffff166126c483611e7e565b73ffffffffffffffffffffffffffffffffffffffff1614159050919050565b50505050565b50505050565b60006127108473ffffffffffffffffffffffffffffffffffffffff16612944565b15612869578373ffffffffffffffffffffffffffffffffffffffff1663150b7a02612739611a21565b8786866040518563ffffffff1660e01b815260040161275b94939291906141cc565b6020604051808303816000875af192505050801561279757506040513d601f19601f82011682018060405250810190612794919061422d565b60015b612819573d80600081146127c7576040519150601f19603f3d011682016040523d82523d6000602084013e6127cc565b606091505b506000815103612811576040517f08c379a000000000000000000000000000000000000000000000000000000000815260040161280890614157565b60405180910390fd5b805181602001fd5b63150b7a0260e01b7bffffffffffffffffffffffffffffffffffffffffffffffffffffffff1916817bffffffffffffffffffffffffffffffffffffffffffffffffffffffff19161491505061286e565b600190505b949350505050565b60606000600161288584612967565b01905060008167ffffffffffffffff8111156128a4576128a3612fef565b5b6040519080825280601f01601f1916602001820160405280156128d65781602001600182028036833780820191505090505b509050600082602001820190505b600115612939578080600190039150507f3031323334353637383961626364656600000000000000000000000000000000600a86061a8153600a858161292d5761292c61425a565b5b049450600085036128e4575b819350505050919050565b6000808273ffffffffffffffffffffffffffffffffffffffff163b119050919050565b600080600090507a184f03e93ff9f4daa797ed6e38ed64bf6a1f01000000000000000083106129c5577a184f03e93ff9f4daa797ed6e38ed64bf6a1f01000000000000000083816129bb576129ba61425a565b5b0492506040810190505b6d04ee2d6d415b85acef81000000008310612a02576d04ee2d6d415b85acef810000000083816129f8576129f761425a565b5b0492506020810190505b662386f26fc100008310612a3157662386f26fc100008381612a2757612a2661425a565b5b0492506010810190505b6305f5e1008310612a5a576305f5e1008381612a5057612a4f61425a565b5b0492506008810190505b6127108310612a7f576127108381612a7557612a7461425a565b5b0492506004810190505b60648310612aa25760648381612a9857612a9761425a565b5b0492506002810190505b600a8310612ab1576001810190505b80915050919050565b6040518060a0016040528060008152602001600073ffffffffffffffffffffffffffffffffffffffff168152602001600073ffffffffffffffffffffffffffffffffffffffff168152602001600081526020016000151581525090565b6000604051905090565b600080fd5b600080fd5b60007fffffffff0000000000000000000000000000000000000000000000000000000082169050919050565b612b6081612b2b565b8114612b6b57600080fd5b50565b600081359050612b7d81612b57565b92915050565b600060208284031215612b9957612b98612b21565b5b6000612ba784828501612b6e565b91505092915050565b60008115159050919050565b612bc581612bb0565b82525050565b6000602082019050612be06000830184612bbc565b92915050565b600081519050919050565b600082825260208201905092915050565b60005b83811015612c20578082015181840152602081019050612c05565b60008484015250505050565b6000601f19601f8301169050919050565b6000612c4882612be6565b612c528185612bf1565b9350612c62818560208601612c02565b612c6b81612c2c565b840191505092915050565b60006020820190508181036000830152612c908184612c3d565b905092915050565b6000819050919050565b612cab81612c98565b8114612cb657600080fd5b50565b600081359050612cc881612ca2565b92915050565b600060208284031215612ce457612ce3612b21565b5b6000612cf284828501612cb9565b91505092915050565b600073ffffffffffffffffffffffffffffffffffffffff82169050919050565b6000612d2682612cfb565b9050919050565b612d3681612d1b565b82525050565b6000602082019050612d516000830184612d2d565b92915050565b612d6081612d1b565b8114612d6b57600080fd5b50565b600081359050612d7d81612d57565b92915050565b60008060408385031215612d9a57612d99612b21565b5b6000612da885828601612d6e565b9250506020612db985828601612cb9565b9150509250929050565b612dcc81612c98565b82525050565b6000602082019050612de76000830184612dc3565b92915050565b600080600060608486031215612e0657612e05612b21565b5b6000612e1486828701612d6e565b9350506020612e2586828701612d6e565b9250506040612e3686828701612cb9565b9150509250925092565b600081519050919050565b600082825260208201905092915050565b6000819050602082019050919050565b612e7581612c98565b82525050565b6000612e8682612cfb565b9050919050565b612e9681612e7b565b82525050565b612ea581612bb0565b82525050565b60a082016000820151612ec16000850182612e6c565b506020820151612ed46020850182612e8d565b506040820151612ee76040850182612e8d565b506060820151612efa6060850182612e6c565b506080820151612f0d6080850182612e9c565b50505050565b6000612f1f8383612eab565b60a08301905092915050565b6000602082019050919050565b6000612f4382612e40565b612f4d8185612e4b565b9350612f5883612e5c565b8060005b83811015612f89578151612f708882612f13565b9750612f7b83612f2b565b925050600181019050612f5c565b5085935050505092915050565b60006020820190508181036000830152612fb08184612f38565b905092915050565b600060208284031215612fce57612fcd612b21565b5b6000612fdc84828501612d6e565b91505092915050565b600080fd5b600080fd5b7f4e487b7100000000000000000000000000000000000000000000000000000000600052604160045260246000fd5b61302782612c2c565b810181811067ffffffffffffffff8211171561304657613045612fef565b5b80604052505050565b6000613059612b17565b9050613065828261301e565b919050565b600067ffffffffffffffff82111561308557613084612fef565b5b61308e82612c2c565b9050602081019050919050565b82818337600083830152505050565b60006130bd6130b88461306a565b61304f565b9050828152602081018484840111156130d9576130d8612fea565b5b6130e484828561309b565b509392505050565b600082601f83011261310157613100612fe5565b5b81356131118482602086016130aa565b91505092915050565b6000806040838503121561313157613130612b21565b5b600083013567ffffffffffffffff81111561314f5761314e612b26565b5b61315b858286016130ec565b925050602061316c85828601612cb9565b9150509250929050565b6000806040838503121561318d5761318c612b21565b5b600061319b85828601612cb9565b92505060206131ac85828601612cb9565b9150509250929050565b6131bf81612bb0565b81146131ca57600080fd5b50565b6000813590506131dc816131b6565b92915050565b600080604083850312156131f9576131f8612b21565b5b600061320785828601612d6e565b9250506020613218858286016131cd565b9150509250929050565b600067ffffffffffffffff82111561323d5761323c612fef565b5b61324682612c2c565b9050602081019050919050565b600061326661326184613222565b61304f565b90508281526020810184848401111561328257613281612fea565b5b61328d84828561309b565b509392505050565b600082601f8301126132aa576132a9612fe5565b5b81356132ba848260208601613253565b91505092915050565b600080600080608085870312156132dd576132dc612b21565b5b60006132eb87828801612d6e565b94505060206132fc87828801612d6e565b935050604061330d87828801612cb9565b925050606085013567ffffffffffffffff81111561332e5761332d612b26565b5b61333a87828801613295565b91505092959194509250565b6000806040838503121561335d5761335c612b21565b5b600061336b85828601612d6e565b925050602061337c85828601612d6e565b9150509250929050565b7f4e487b7100000000000000000000000000000000000000000000000000000000600052602260045260246000fd5b600060028204905060018216806133cd57607f821691505b6020821081036133e0576133df613386565b5b50919050565b7f4552433732313a20617070726f76616c20746f2063757272656e74206f776e6560008201527f7200000000000000000000000000000000000000000000000000000000000000602082015250565b6000613442602183612bf1565b915061344d826133e6565b604082019050919050565b6000602082019050818103600083015261347181613435565b9050919050565b7f4552433732313a20617070726f76652063616c6c6572206973206e6f7420746f60008201527f6b656e206f776e6572206f7220617070726f76656420666f7220616c6c000000602082015250565b60006134d4603d83612bf1565b91506134df82613478565b604082019050919050565b60006020820190508181036000830152613503816134c7565b9050919050565b7f4552433732313a2063616c6c6572206973206e6f7420746f6b656e206f776e6560008201527f72206f7220617070726f76656400000000000000000000000000000000000000602082015250565b6000613566602d83612bf1565b91506135718261350a565b604082019050919050565b6000602082019050818103600083015261359581613559565b9050919050565b7f4e487b7100000000000000000000000000000000000000000000000000000000600052601160045260246000fd5b60006135d682612c98565b91506135e183612c98565b92508282019050808211156135f9576135f861359c565b5b92915050565b600061360a82612c98565b91507fffffffffffffffffffffffffffffffffffffffffffffffffffffffffffffffff820361363c5761363b61359c565b5b600182019050919050565b7f4e487b7100000000000000000000000000000000000000000000000000000000600052603260045260246000fd5b7f4552433732313a20696e76616c696420746f6b656e2049440000000000000000600082015250565b60006136ac601883612bf1565b91506136b782613676565b602082019050919050565b600060208201905081810360008301526136db8161369f565b9050919050565b7f4552433732313a2061646472657373207a65726f206973206e6f74206120766160008201527f6c6964206f776e65720000000000000000000000000000000000000000000000602082015250565b600061373e602983612bf1565b9150613749826136e2565b604082019050919050565b6000602082019050818103600083015261376d81613731565b9050919050565b7f4f6e6c79206974656d206f776e65722063616e20706572666f726d207468697360008201527f206f7065726174696f6e00000000000000000000000000000000000000000000602082015250565b60006137d0602a83612bf1565b91506137db82613774565b604082019050919050565b600060208201905081810360008301526137ff816137c3565b9050919050565b7f5072696365206d75737420626520657175616c20746f206c697374696e67205060008201527f7269636500000000000000000000000000000000000000000000000000000000602082015250565b6000613862602483612bf1565b915061386d82613806565b604082019050919050565b6000602082019050818103600083015261389181613855565b9050919050565b7f4f6e6c79206f776e65722063616e206368616e676520746865206c697374696e60008201527f6720707269636500000000000000000000000000000000000000000000000000602082015250565b60006138f4602783612bf1565b91506138ff82613898565b604082019050919050565b60006020820190508181036000830152613923816138e7565b9050919050565b7f506c65617365207375626d6974207468652061736b696e67207072696365206960008201527f6e6f7264657220746f20636f6d706c6574652074686520707572636861736500602082015250565b6000613986603f83612bf1565b91506139918261392a565b604082019050919050565b600060208201905081810360008301526139b581613979565b9050919050565b600081905092915050565b60006139d282612be6565b6139dc81856139bc565b93506139ec818560208601612c02565b80840191505092915050565b6000613a0482856139c7565b9150613a1082846139c7565b91508190509392505050565b6000613a2782612c98565b9150613a3283612c98565b9250828203905081811115613a4a57613a4961359c565b5b92915050565b7f4552433732313a207472616e736665722066726f6d20696e636f72726563742060008201527f6f776e6572000000000000000000000000000000000000000000000000000000602082015250565b6000613aac602583612bf1565b9150613ab782613a50565b604082019050919050565b60006020820190508181036000830152613adb81613a9f565b9050919050565b7f4552433732313a207472616e7366657220746f20746865207a65726f2061646460008201527f7265737300000000000000000000000000000000000000000000000000000000602082015250565b6000613b3e602483612bf1565b9150613b4982613ae2565b604082019050919050565b60006020820190508181036000830152613b6d81613b31565b9050919050565b7f4552433732313a206d696e7420746f20746865207a65726f2061646472657373600082015250565b6000613baa602083612bf1565b9150613bb582613b74565b602082019050919050565b60006020820190508181036000830152613bd981613b9d565b9050919050565b7f4552433732313a20746f6b656e20616c7265616479206d696e74656400000000600082015250565b6000613c16601c83612bf1565b9150613c2182613be0565b602082019050919050565b60006020820190508181036000830152613c4581613c09565b9050919050565b7f45524337323155524953746f726167653a2055524920736574206f66206e6f6e60008201527f6578697374656e7420746f6b656e000000000000000000000000000000000000602082015250565b6000613ca8602e83612bf1565b9150613cb382613c4c565b604082019050919050565b60006020820190508181036000830152613cd781613c9b565b9050919050565b60008190508160005260206000209050919050565b60006020601f8301049050919050565b600082821b905092915050565b600060088302613d407fffffffffffffffffffffffffffffffffffffffffffffffffffffffffffffffff82613d03565b613d4a8683613d03565b95508019841693508086168417925050509392505050565b6000819050919050565b6000613d87613d82613d7d84612c98565b613d62565b612c98565b9050919050565b6000819050919050565b613da183613d6c565b613db5613dad82613d8e565b848454613d10565b825550505050565b600090565b613dca613dbd565b613dd5818484613d98565b505050565b5b81811015613df957613dee600082613dc2565b600181019050613ddb565b5050565b601f821115613e3e57613e0f81613cde565b613e1884613cf3565b81016020851015613e27578190505b613e3b613e3385613cf3565b830182613dda565b50505b505050565b600082821c905092915050565b6000613e6160001984600802613e43565b1980831691505092915050565b6000613e7a8383613e50565b9150826002028217905092915050565b613e9382612be6565b67ffffffffffffffff811115613eac57613eab612fef565b5b613eb682546133b5565b613ec1828285613dfd565b600060209050601f831160018114613ef45760008415613ee2578287015190505b613eec8582613e6e565b865550613f54565b601f198416613f0286613cde565b60005b82811015613f2a57848901518255600182019150602085019450602081019050613f05565b86831015613f475784890151613f43601f891682613e50565b8355505b6001600288020188555050505b505050505050565b7f50726963652063616e6e6f742062652030000000000000000000000000000000600082015250565b6000613f92601183612bf1565b9150613f9d82613f5c565b602082019050919050565b60006020820190508181036000830152613fc181613f85565b9050919050565b6000608082019050613fdd6000830187612d2d565b613fea6020830186612d2d565b613ff76040830185612dc3565b6140046060830184612bbc565b95945050505050565b7f436f756e7465723a2064656372656d656e74206f766572666c6f770000000000600082015250565b6000614043601b83612bf1565b915061404e8261400d565b602082019050919050565b6000602082019050818103600083015261407281614036565b9050919050565b7f4552433732313a20617070726f766520746f2063616c6c657200000000000000600082015250565b60006140af601983612bf1565b91506140ba82614079565b602082019050919050565b600060208201905081810360008301526140de816140a2565b9050919050565b7f4552433732313a207472616e7366657220746f206e6f6e20455243373231526560008201527f63656976657220696d706c656d656e7465720000000000000000000000000000602082015250565b6000614141603283612bf1565b915061414c826140e5565b604082019050919050565b6000602082019050818103600083015261417081614134565b9050919050565b600081519050919050565b600082825260208201905092915050565b600061419e82614177565b6141a88185614182565b93506141b8818560208601612c02565b6141c181612c2c565b840191505092915050565b60006080820190506141e16000830187612d2d565b6141ee6020830186612d2d565b6141fb6040830185612dc3565b818103606083015261420d8184614193565b905095945050505050565b60008151905061422781612b57565b92915050565b60006020828403121561424357614242612b21565b5b600061425184828501614218565b91505092915050565b7f4e487b7100000000000000000000000000000000000000000000000000000000600052601260045260246000fdfea26469706673582212207d084200a7749a7f0192d5c88b30dbffaa788cda4627544fc15a4c48481e750e64736f6c63430008110033",
  "linkReferences": {},
  "deployedLinkReferences": {}
}